{
  "_format": "hh-sol-artifact-1",
  "contractName": "DAO",
  "sourceName": "contracts/DAO.sol",
  "abi": [
    {
      "inputs": [
        {
          "internalType": "address",
          "name": "_nft",
          "type": "address"
        }
      ],
      "stateMutability": "nonpayable",
      "type": "constructor"
    },
    {
      "anonymous": false,
      "inputs": [
        {
          "indexed": false,
          "internalType": "uint256",
          "name": "id",
          "type": "uint256"
        },
        {
          "indexed": false,
          "internalType": "bool",
          "name": "passed",
          "type": "bool"
        }
      ],
      "name": "ProposalCounted",
      "type": "event"
    },
    {
      "anonymous": false,
      "inputs": [
        {
          "indexed": false,
          "internalType": "uint256",
          "name": "id",
          "type": "uint256"
        },
        {
          "indexed": false,
          "internalType": "string",
          "name": "title",
          "type": "string"
        },
        {
          "indexed": false,
          "internalType": "uint256",
          "name": "maxVotes",
          "type": "uint256"
        },
        {
          "indexed": false,
          "internalType": "address",
          "name": "proposer",
          "type": "address"
        }
      ],
      "name": "ProposalCreated",
      "type": "event"
    },
    {
      "anonymous": false,
      "inputs": [
        {
          "indexed": false,
          "internalType": "uint256",
          "name": "id",
          "type": "uint256"
        },
        {
          "indexed": false,
          "internalType": "address",
          "name": "voter",
          "type": "address"
        },
        {
          "indexed": false,
          "internalType": "uint256",
          "name": "voteUp",
          "type": "uint256"
        },
        {
          "indexed": false,
          "internalType": "uint256",
          "name": "voteDown",
          "type": "uint256"
        },
        {
          "indexed": false,
          "internalType": "bool",
          "name": "votedFor",
          "type": "bool"
        }
      ],
      "name": "ProposalVoted",
      "type": "event"
    },
    {
      "inputs": [
        {
          "internalType": "uint256",
          "name": "_id",
          "type": "uint256"
        },
        {
          "internalType": "address",
          "name": "_voter",
          "type": "address"
        }
      ],
      "name": "checkVotingEligibility",
      "outputs": [
        {
          "internalType": "bool",
          "name": "",
          "type": "bool"
        }
      ],
      "stateMutability": "view",
      "type": "function"
    },
    {
      "inputs": [
        {
          "internalType": "uint256",
          "name": "_id",
          "type": "uint256"
        }
      ],
      "name": "countVotes",
      "outputs": [],
      "stateMutability": "nonpayable",
      "type": "function"
    },
    {
      "inputs": [
        {
          "internalType": "string",
          "name": "_title",
          "type": "string"
        },
        {
          "internalType": "string",
          "name": "_description",
          "type": "string"
        },
        {
          "internalType": "uint32",
          "name": "_deadline",
          "type": "uint32"
        },
        {
          "internalType": "address[]",
          "name": "_canVote",
          "type": "address[]"
        }
      ],
      "name": "createProposal",
      "outputs": [],
      "stateMutability": "nonpayable",
      "type": "function"
    },
    {
      "inputs": [],
      "name": "getContractOwner",
      "outputs": [
        {
          "internalType": "address",
          "name": "",
          "type": "address"
        }
      ],
      "stateMutability": "view",
      "type": "function"
    },
    {
      "inputs": [],
      "name": "getNextProposal",
      "outputs": [
        {
          "internalType": "uint256",
          "name": "",
          "type": "uint256"
        }
      ],
      "stateMutability": "view",
      "type": "function"
    },
    {
      "inputs": [
        {
          "internalType": "uint256",
          "name": "_id",
          "type": "uint256"
        }
      ],
      "name": "getProposal",
      "outputs": [
        {
          "components": [
            {
              "internalType": "uint256",
              "name": "id",
              "type": "uint256"
            },
            {
              "internalType": "address",
              "name": "proposedBy",
              "type": "address"
            },
            {
              "internalType": "string",
              "name": "title",
              "type": "string"
            },
            {
              "internalType": "string",
              "name": "description",
              "type": "string"
            },
            {
              "internalType": "uint32",
              "name": "deadline",
              "type": "uint32"
            },
            {
              "internalType": "uint256",
              "name": "voteUp",
              "type": "uint256"
            },
            {
              "internalType": "uint256",
              "name": "voteDown",
              "type": "uint256"
            },
            {
              "internalType": "uint256",
              "name": "maxVotes",
              "type": "uint256"
            },
            {
              "internalType": "address[]",
              "name": "canVote",
              "type": "address[]"
            },
            {
              "internalType": "bool",
              "name": "voteCounted",
              "type": "bool"
            },
            {
              "internalType": "bool",
              "name": "exists",
              "type": "bool"
            },
            {
              "internalType": "bool",
              "name": "passed",
              "type": "bool"
            }
          ],
          "internalType": "struct DAO.Proposal",
          "name": "",
          "type": "tuple"
        }
      ],
      "stateMutability": "view",
      "type": "function"
    },
    {
      "inputs": [],
      "name": "nft",
      "outputs": [
        {
          "internalType": "contract INFT",
          "name": "",
          "type": "address"
        }
      ],
      "stateMutability": "view",
      "type": "function"
    },
    {
      "inputs": [
        {
          "internalType": "uint256",
          "name": "_id",
          "type": "uint256"
        },
        {
          "internalType": "bool",
          "name": "_vote",
          "type": "bool"
        }
      ],
      "name": "voteOnProposal",
      "outputs": [],
      "stateMutability": "nonpayable",
      "type": "function"
    }
  ],
  "bytecode": "0x60806040523480156200001157600080fd5b506040516200220d3803806200220d833981810160405281019062000037919062000131565b806000806101000a81548173ffffffffffffffffffffffffffffffffffffffff021916908373ffffffffffffffffffffffffffffffffffffffff160217905550600160028190555033600160006101000a81548173ffffffffffffffffffffffffffffffffffffffff021916908373ffffffffffffffffffffffffffffffffffffffff1602179055505062000163565b600080fd5b600073ffffffffffffffffffffffffffffffffffffffff82169050919050565b6000620000f982620000cc565b9050919050565b6200010b81620000ec565b81146200011757600080fd5b50565b6000815190506200012b8162000100565b92915050565b6000602082840312156200014a5762000149620000c7565b5b60006200015a848285016200011a565b91505092915050565b61209a80620001736000396000f3fe608060405234801561001057600080fd5b50600436106100885760003560e01c806347ccca021161005b57806347ccca02146101015780636f6a7a081461011f57806370f6f55c1461013b578063c7f758a81461016b57610088565b80631614665c1461008d5780631840f0ca146100a957806341018e27146100c5578063442890d5146100e3575b600080fd5b6100a760048036038101906100a2919061103f565b61019b565b005b6100c360048036038101906100be919061107f565b610452565b005b6100cd61069a565b6040516100da91906110bb565b60405180910390f35b6100eb6106a4565b6040516100f89190611117565b60405180910390f35b61010961073c565b6040516101169190611191565b60405180910390f35b61013960048036038101906101349190611422565b610760565b005b610155600480360381019061015091906114dd565b6109bc565b604051610162919061152c565b60405180910390f35b6101856004803603810190610180919061107f565b610a92565b60405161019291906117c3565b60405180910390f35b600073ffffffffffffffffffffffffffffffffffffffff163373ffffffffffffffffffffffffffffffffffffffff160361020a576040517f08c379a000000000000000000000000000000000000000000000000000000000815260040161020190611842565b60405180910390fd5b600115156004600084815260200190815260200160002060090160019054906101000a900460ff16151514610274576040517f08c379a000000000000000000000000000000000000000000000000000000000815260040161026b906118ae565b60405180910390fd5b600015156003600084815260200190815260200160002060003373ffffffffffffffffffffffffffffffffffffffff1673ffffffffffffffffffffffffffffffffffffffff16815260200190815260200160002060009054906101000a900460ff16151514610318576040517f08c379a000000000000000000000000000000000000000000000000000000000815260040161030f9061191a565b60405180910390fd5b6004600083815260200190815260200160002060040160009054906101000a900463ffffffff1663ffffffff16421115610387576040517f08c379a000000000000000000000000000000000000000000000000000000000815260040161037e90611986565b60405180910390fd5b600060046000848152602001908152602001600020905060011515821515036103c9578060050160008154809291906103bf906119d5565b91905055506103e4565b8060060160008154809291906103de906119d5565b91905055505b60016003600085815260200190815260200160002060003373ffffffffffffffffffffffffffffffffffffffff1673ffffffffffffffffffffffffffffffffffffffff16815260200190815260200160002060006101000a81548160ff021916908315150217905550505050565b60006004600083815260200190815260200160002090508060010160009054906101000a900473ffffffffffffffffffffffffffffffffffffffff1673ffffffffffffffffffffffffffffffffffffffff163373ffffffffffffffffffffffffffffffffffffffff16146104fb576040517f08c379a00000000000000000000000000000000000000000000000000000000081526004016104f290611a69565b60405180910390fd5b600115158160090160019054906101000a900460ff16151514610553576040517f08c379a000000000000000000000000000000000000000000000000000000000815260040161054a906118ae565b60405180910390fd5b8060040160009054906101000a900463ffffffff1663ffffffff1642116105af576040517f08c379a00000000000000000000000000000000000000000000000000000000081526004016105a690611ad5565b60405180910390fd5b8060090160009054906101000a900460ff1615610601576040517f08c379a00000000000000000000000000000000000000000000000000000000081526004016105f890611b41565b60405180910390fd5b80600601548160050154111561062f5760018160090160026101000a81548160ff0219169083151502179055505b60018160090160006101000a81548160ff0219169083151502179055507f71c02f1ee20fd1f93c6fe35f835ad92d308705473f10158f4b3f1b4a41606b51828260090160029054906101000a900460ff1660405161068e929190611b61565b60405180910390a15050565b6000600254905090565b60008073ffffffffffffffffffffffffffffffffffffffff163373ffffffffffffffffffffffffffffffffffffffff1603610714576040517f08c379a000000000000000000000000000000000000000000000000000000000815260040161070b90611842565b60405180910390fd5b600160009054906101000a900473ffffffffffffffffffffffffffffffffffffffff16905090565b60008054906101000a900473ffffffffffffffffffffffffffffffffffffffff1681565b600073ffffffffffffffffffffffffffffffffffffffff163373ffffffffffffffffffffffffffffffffffffffff16036107cf576040517f08c379a00000000000000000000000000000000000000000000000000000000081526004016107c690611842565b60405180910390fd5b60003390506107dd81610dd6565b61081c576040517f08c379a000000000000000000000000000000000000000000000000000000000815260040161081390611bd6565b60405180910390fd5b60006004600060025481526020019081526020016000209050600081600001541461087c576040517f08c379a000000000000000000000000000000000000000000000000000000000815260040161087390611c42565b60405180910390fd5b6002548160000181905550858160020190816108989190611e64565b50818160010160006101000a81548173ffffffffffffffffffffffffffffffffffffffff021916908373ffffffffffffffffffffffffffffffffffffffff160217905550848160030190816108ed9190611e64565b5083426108fa9190611f36565b8160040160006101000a81548163ffffffff021916908363ffffffff160217905550825181600701819055508281600801908051906020019061093e929190610e93565b5060018160090160016101000a81548160ff0219169083151502179055507f98504bc76d855fac343248bdddc062a45d467777dd16a83e57e505f8121562f3600254878551856040516109949493929190611fa7565b60405180910390a1600260008154809291906109af906119d5565b9190505550505050505050565b600080600190505b60046000858152602001908152602001600020600801805490508111610a86578273ffffffffffffffffffffffffffffffffffffffff16600460008681526020019081526020016000206008018281548110610a2357610a22611ff3565b5b9060005260206000200160009054906101000a900473ffffffffffffffffffffffffffffffffffffffff1673ffffffffffffffffffffffffffffffffffffffff1603610a73576001915050610a8c565b8080610a7e906119d5565b9150506109c4565b50600090505b92915050565b610a9a610f1d565b600073ffffffffffffffffffffffffffffffffffffffff163373ffffffffffffffffffffffffffffffffffffffff1603610b09576040517f08c379a0000000000000000000000000000000000000000000000000000000008152600401610b0090611842565b60405180910390fd5b6004600083815260200190815260200160002060405180610180016040529081600082015481526020016001820160009054906101000a900473ffffffffffffffffffffffffffffffffffffffff1673ffffffffffffffffffffffffffffffffffffffff1673ffffffffffffffffffffffffffffffffffffffff168152602001600282018054610b9890611c91565b80601f0160208091040260200160405190810160405280929190818152602001828054610bc490611c91565b8015610c115780601f10610be657610100808354040283529160200191610c11565b820191906000526020600020905b815481529060010190602001808311610bf457829003601f168201915b50505050508152602001600382018054610c2a90611c91565b80601f0160208091040260200160405190810160405280929190818152602001828054610c5690611c91565b8015610ca35780601f10610c7857610100808354040283529160200191610ca3565b820191906000526020600020905b815481529060010190602001808311610c8657829003601f168201915b505050505081526020016004820160009054906101000a900463ffffffff1663ffffffff1663ffffffff16815260200160058201548152602001600682015481526020016007820154815260200160088201805480602002602001604051908101604052809291908181526020018280548015610d7557602002820191906000526020600020905b8160009054906101000a900473ffffffffffffffffffffffffffffffffffffffff1673ffffffffffffffffffffffffffffffffffffffff1681526020019060010190808311610d2b575b505050505081526020016009820160009054906101000a900460ff161515151581526020016009820160019054906101000a900460ff161515151581526020016009820160029054906101000a900460ff1615151515815250509050919050565b60008060008054906101000a900473ffffffffffffffffffffffffffffffffffffffff1673ffffffffffffffffffffffffffffffffffffffff166370a08231846040518263ffffffff1660e01b8152600401610e329190611117565b602060405180830381865afa158015610e4f573d6000803e3d6000fd5b505050506040513d601f19601f82011682018060405250810190610e739190612037565b90506000811115610e88576001915050610e8e565b60009150505b919050565b828054828255906000526020600020908101928215610f0c579160200282015b82811115610f0b5782518260006101000a81548173ffffffffffffffffffffffffffffffffffffffff021916908373ffffffffffffffffffffffffffffffffffffffff16021790555091602001919060010190610eb3565b5b509050610f199190610fa0565b5090565b60405180610180016040528060008152602001600073ffffffffffffffffffffffffffffffffffffffff1681526020016060815260200160608152602001600063ffffffff168152602001600081526020016000815260200160008152602001606081526020016000151581526020016000151581526020016000151581525090565b5b80821115610fb9576000816000905550600101610fa1565b5090565b6000604051905090565b600080fd5b600080fd5b6000819050919050565b610fe481610fd1565b8114610fef57600080fd5b50565b60008135905061100181610fdb565b92915050565b60008115159050919050565b61101c81611007565b811461102757600080fd5b50565b60008135905061103981611013565b92915050565b6000806040838503121561105657611055610fc7565b5b600061106485828601610ff2565b92505060206110758582860161102a565b9150509250929050565b60006020828403121561109557611094610fc7565b5b60006110a384828501610ff2565b91505092915050565b6110b581610fd1565b82525050565b60006020820190506110d060008301846110ac565b92915050565b600073ffffffffffffffffffffffffffffffffffffffff82169050919050565b6000611101826110d6565b9050919050565b611111816110f6565b82525050565b600060208201905061112c6000830184611108565b92915050565b6000819050919050565b600061115761115261114d846110d6565b611132565b6110d6565b9050919050565b60006111698261113c565b9050919050565b600061117b8261115e565b9050919050565b61118b81611170565b82525050565b60006020820190506111a66000830184611182565b92915050565b600080fd5b600080fd5b6000601f19601f8301169050919050565b7f4e487b7100000000000000000000000000000000000000000000000000000000600052604160045260246000fd5b6111ff826111b6565b810181811067ffffffffffffffff8211171561121e5761121d6111c7565b5b80604052505050565b6000611231610fbd565b905061123d82826111f6565b919050565b600067ffffffffffffffff82111561125d5761125c6111c7565b5b611266826111b6565b9050602081019050919050565b82818337600083830152505050565b600061129561129084611242565b611227565b9050828152602081018484840111156112b1576112b06111b1565b5b6112bc848285611273565b509392505050565b600082601f8301126112d9576112d86111ac565b5b81356112e9848260208601611282565b91505092915050565b600063ffffffff82169050919050565b61130b816112f2565b811461131657600080fd5b50565b60008135905061132881611302565b92915050565b600067ffffffffffffffff821115611349576113486111c7565b5b602082029050602081019050919050565b600080fd5b611368816110f6565b811461137357600080fd5b50565b6000813590506113858161135f565b92915050565b600061139e6113998461132e565b611227565b905080838252602082019050602084028301858111156113c1576113c061135a565b5b835b818110156113ea57806113d68882611376565b8452602084019350506020810190506113c3565b5050509392505050565b600082601f830112611409576114086111ac565b5b813561141984826020860161138b565b91505092915050565b6000806000806080858703121561143c5761143b610fc7565b5b600085013567ffffffffffffffff81111561145a57611459610fcc565b5b611466878288016112c4565b945050602085013567ffffffffffffffff81111561148757611486610fcc565b5b611493878288016112c4565b93505060406114a487828801611319565b925050606085013567ffffffffffffffff8111156114c5576114c4610fcc565b5b6114d1878288016113f4565b91505092959194509250565b600080604083850312156114f4576114f3610fc7565b5b600061150285828601610ff2565b925050602061151385828601611376565b9150509250929050565b61152681611007565b82525050565b6000602082019050611541600083018461151d565b92915050565b61155081610fd1565b82525050565b61155f816110f6565b82525050565b600081519050919050565b600082825260208201905092915050565b60005b8381101561159f578082015181840152602081019050611584565b60008484015250505050565b60006115b682611565565b6115c08185611570565b93506115d0818560208601611581565b6115d9816111b6565b840191505092915050565b6115ed816112f2565b82525050565b600081519050919050565b600082825260208201905092915050565b6000819050602082019050919050565b600061162b8383611556565b60208301905092915050565b6000602082019050919050565b600061164f826115f3565b61165981856115fe565b93506116648361160f565b8060005b8381101561169557815161167c888261161f565b975061168783611637565b925050600181019050611668565b5085935050505092915050565b6116ab81611007565b82525050565b6000610180830160008301516116ca6000860182611547565b5060208301516116dd6020860182611556565b50604083015184820360408601526116f582826115ab565b9150506060830151848203606086015261170f82826115ab565b915050608083015161172460808601826115e4565b5060a083015161173760a0860182611547565b5060c083015161174a60c0860182611547565b5060e083015161175d60e0860182611547565b506101008301518482036101008601526117778282611644565b91505061012083015161178e6101208601826116a2565b506101408301516117a36101408601826116a2565b506101608301516117b86101608601826116a2565b508091505092915050565b600060208201905081810360008301526117dd81846116b1565b905092915050565b600082825260208201905092915050565b7f44414f3a20696e76616c69642061646472657373000000000000000000000000600082015250565b600061182c6014836117e5565b9150611837826117f6565b602082019050919050565b6000602082019050818103600083015261185b8161181f565b9050919050565b7f44414f3a2070726f706f73616c20646f6573206e6f7420657869737400000000600082015250565b6000611898601c836117e5565b91506118a382611862565b602082019050919050565b600060208201905081810360008301526118c78161188b565b9050919050565b7f44414f3a20616c726561647920766f7465640000000000000000000000000000600082015250565b60006119046012836117e5565b915061190f826118ce565b602082019050919050565b60006020820190508181036000830152611933816118f7565b9050919050565b7f44414f3a20766f74696e672074696d6520656e64656400000000000000000000600082015250565b60006119706016836117e5565b915061197b8261193a565b602082019050919050565b6000602082019050818103600083015261199f81611963565b9050919050565b7f4e487b7100000000000000000000000000000000000000000000000000000000600052601160045260246000fd5b60006119e082610fd1565b91507fffffffffffffffffffffffffffffffffffffffffffffffffffffffffffffffff8203611a1257611a116119a6565b5b600182019050919050565b7f44414f3a206f6e6c79206f776e65722063616e2063616c6c0000000000000000600082015250565b6000611a536018836117e5565b9150611a5e82611a1d565b602082019050919050565b60006020820190508181036000830152611a8281611a46565b9050919050565b7f44414f3a20646561646c696e65206e6f742066696e6973686564000000000000600082015250565b6000611abf601a836117e5565b9150611aca82611a89565b602082019050919050565b60006020820190508181036000830152611aee81611ab2565b9050919050565b7f44414f3a20566f746520636f756e746564000000000000000000000000000000600082015250565b6000611b2b6011836117e5565b9150611b3682611af5565b602082019050919050565b60006020820190508181036000830152611b5a81611b1e565b9050919050565b6000604082019050611b7660008301856110ac565b611b83602083018461151d565b9392505050565b7f44414f3a206f6e6c79206e667420686f6c6465722063616e2070726f706f7365600082015250565b6000611bc06020836117e5565b9150611bcb82611b8a565b602082019050919050565b60006020820190508181036000830152611bef81611bb3565b9050919050565b7f44414f3a2070726f706f73616c20616c72656164792065786973747300000000600082015250565b6000611c2c601c836117e5565b9150611c3782611bf6565b602082019050919050565b60006020820190508181036000830152611c5b81611c1f565b9050919050565b7f4e487b7100000000000000000000000000000000000000000000000000000000600052602260045260246000fd5b60006002820490506001821680611ca957607f821691505b602082108103611cbc57611cbb611c62565b5b50919050565b60008190508160005260206000209050919050565b60006020601f8301049050919050565b600082821b905092915050565b600060088302611d247fffffffffffffffffffffffffffffffffffffffffffffffffffffffffffffffff82611ce7565b611d2e8683611ce7565b95508019841693508086168417925050509392505050565b6000611d61611d5c611d5784610fd1565b611132565b610fd1565b9050919050565b6000819050919050565b611d7b83611d46565b611d8f611d8782611d68565b848454611cf4565b825550505050565b600090565b611da4611d97565b611daf818484611d72565b505050565b5b81811015611dd357611dc8600082611d9c565b600181019050611db5565b5050565b601f821115611e1857611de981611cc2565b611df284611cd7565b81016020851015611e01578190505b611e15611e0d85611cd7565b830182611db4565b50505b505050565b600082821c905092915050565b6000611e3b60001984600802611e1d565b1980831691505092915050565b6000611e548383611e2a565b9150826002028217905092915050565b611e6d82611565565b67ffffffffffffffff811115611e8657611e856111c7565b5b611e908254611c91565b611e9b828285611dd7565b600060209050601f831160018114611ece5760008415611ebc578287015190505b611ec68582611e48565b865550611f2e565b601f198416611edc86611cc2565b60005b82811015611f0457848901518255600182019150602085019450602081019050611edf565b86831015611f215784890151611f1d601f891682611e2a565b8355505b6001600288020188555050505b505050505050565b6000611f41826112f2565b9150611f4c836112f2565b9250828201905063ffffffff811115611f6857611f676119a6565b5b92915050565b6000611f7982611565565b611f8381856117e5565b9350611f93818560208601611581565b611f9c816111b6565b840191505092915050565b6000608082019050611fbc60008301876110ac565b8181036020830152611fce8186611f6e565b9050611fdd60408301856110ac565b611fea6060830184611108565b95945050505050565b7f4e487b7100000000000000000000000000000000000000000000000000000000600052603260045260246000fd5b60008151905061203181610fdb565b92915050565b60006020828403121561204d5761204c610fc7565b5b600061205b84828501612022565b9150509291505056fea2646970667358221220919d029a95064e1a6e90bd25b8f98faedf5e96c7a619daf44fcb56f7232a298164736f6c63430008110033",
  "linkReferences": {},
  "deployedLinkReferences": {}
}